:100000000C942A000C9447000C9447000C94E900CF
:100010000C9447000C9447000C9447000C94470044
:100020000C9447000C9447000C9447000C94490032
:100030000C9472000C9447000C9447000C944700F9
:100040000C9447000C9447000C9447000C94470014
:100050000C94470011241FBECFE5D4E0DEBFCDBF16
:1000600010E0A0E6B0E0E2EFF4E002C005900D92EF
:10007000A83AB107D9F711E0A8EAB0E001C01D9293
:10008000AB3FB107E1F70E941D020C9477020C947C
:1000900000001F920F920FB60F9211242F938F938F
:1000A0009F93EF93FF939BB12CB1E091D101EF5F50
:1000B0008091D201E81711F482E008C0892F88717D
:1000C000E093D101F0E0E153FF4F20838093D3010F
:1000D000FF91EF919F918F912F910F900FBE0F90F5
:1000E0001F9018951F920F920FB60F9211248F93A5
:1000F0009F93EF93FF939091CF018091D001981738
:1001000061F0E091D001EF5FEF71E093D001F0E09A
:10011000E155FF4F80818CB901C05598FF91EF9157
:100120009F918F910F900FBE0F901F901895109276
:10013000D1011092D20108959C011092CF0110922A
:10014000D0011092D1011092D20197FF03C082E03A
:100150008BB93F7730BD29B988E98AB986E880BD77
:1001600008959091D1018091D201981719F420E05F
:1001700031E011C0E091D201EF5FE093D201F0E0F5
:10018000E153FF4F30812091D301922F80E0AC01E9
:10019000430F511D9A01C90108955D9BFECF8CB993
:1001A00008955D9BFECF8CB90895FC0104C05D9B52
:1001B000FECF31968CB980818823C9F7089503C09A
:1001C0005D9BFECF2CB9FC01019624912223C1F73F
:1001D00008951F920F920FB60F9211248F939F9341
:1001E000EF93FF938091F601882329F18091F70125
:1001F0008150F9F48091F9019091FA0180FF02C0D9
:10020000DD9A01C0DD988091F9019091FA019695EF
:1002100087959093FA018093F9018091F8018150BC
:100220008093F8018091F801882311F41092F6016F
:1002300083E08093F7018091F401882309F05AC08C
:100240008091AE00882301F18091AC0081508093B1
:10025000AC00882309F04EC01092AE001092F50158
:10026000E091A800F0E08091AA00EC52FE4F80835C
:100270008091A8008F5F8093A8008091A8008032B1
:10028000C8F11092A80036C08091F501882381F44E
:10029000CC9930C081E08093F5011092AA0094E0DF
:1002A0009093AC0098E09093AB008093AD0022C097
:1002B0008091AC0081508093AC008823D9F483E016
:1002C0008093AC00CC9B07C08091AA009091AD00B8
:1002D000892B8093AA008091AD00880F8093AD0098
:1002E0008091AB0081508093AB00882319F481E0AA
:1002F0008093AE00FF91EF919F918F910F900FBE71
:100300000F901F9018951092A8001092A9000895C0
:100310001092F6011092F5011092F401DD9AD59A2F
:10032000D4989FB7F8948FE183BD8AE085BD89B7E3
:10033000806889BF14BC9FBF1092F401089513BC5C
:1003400015BC19BE14BCD598D49A08951092F40126
:10035000089581E08093F40108959091A90080911F
:10036000A8009817E1F3E92FF0E0EC52FE4FE0818E
:10037000892F8F5F8093A900803210F01092A9001E
:100380008E2F08959091A80020E08091A9009813E5
:1003900021E0822F08951092A8001092A9000895DC
:1003A0008091F6010895982F8091F6018823E1F756
:1003B00083E08093F7018AE08093F801892F90E031
:1003C000880F991F92609093FA018093F90181E060
:1003D0008093F6010895CF93DF93EC0103C021963B
:1003E0000E94D30188818823D1F7DF91CF910895AE
:1003F000CF93DF93EC0102C00E94D301FE0121964E
:1004000084918823C9F7DF91CF9108950F931F93AB
:10041000CF93DF938C01C0E0D0E00E94AD01F801E2
:10042000EC0FFD1F8D3019F080832196F6CF1082DE
:10043000DF91CF911F910F9108950F931F93CF9349
:10044000DF9383E090E00E949C000E9488017894F2
:1004500080E690E00E94EB01A09AA19AA29AA39A4A
:10046000A49AA59AA69AA79AAC9AAD9AAE9AAF9A70
:1004700080ED97E028EB30E0F9013197F1F7019733
:10048000D9F7C0E0D0E008EB10E00E94B10090FD89
:1004900013C08136910519F52196A89AC330D1056C
:1004A000F1F488E690E00E94EB01A898A998AA9A36
:1004B000AB9AC0E0D0E013C08EE790E00E94EB0161
:1004C00089E990E00E94EB01A89AA99AAA98AB98B2
:1004D00084EF91E0F8013197F1F70197D9F788E8B7
:1004E00093E1F8013197F1F70197D9F7CECFF8945E
:0204F000FFCF3C
:1004F20077656C636F6D650056656869636C65202E
:10050200697320696E2072616E67650A0D00566517
:100512006869636C65206973206F757420206F664B
:100522002072616E67650A0D0073797374656D20C0
:08053200616C6572740A0D0092
:00000001FF
