:100000000C942A000C943C000C943C000C943C0092
:100010000C943C000C943C000C943C000C943C0070
:100020000C943C000C943C000C943C000C943E005E
:100030000C9467000C943C000C943C000C943C0025
:100040000C943C000C943C000C943C000C943C0040
:100050000C943C0011241FBECFE5D4E0DEBFCDBF21
:1000600011E0A0E6B0E001C01D92A538B107E1F7AC
:100070000E9416010C9461010C9400001F920F92D3
:100080000FB60F9211242F938F939F93EF93FF93AB
:100090009BB12CB1E0918201EF5F80918301E81761
:1000A00011F482E008C0892F8871E0938201F0E0AA
:1000B000E058FF4F208380938401FF91EF919F913F
:1000C0008F912F910F900FBE0F901F9018951F9238
:1000D0000F920FB60F9211248F939F93EF93FF937C
:1000E0009091800180918101981761F0E0918101E8
:1000F000EF5FEF71E0938101F0E0E05AFF4F808104
:100100008CB901C05598FF91EF919F918F910F90FD
:100110000FBE0F901F9018951092820110928301CC
:1001200008959C0110928001109281011092820129
:100130001092830197FF03C082E08BB93F7730BDF7
:1001400029B988E98AB986E880BD0895909182012D
:1001500080918301981719F420E031E011C0E091FB
:100160008301EF5FE0938301F0E0E058FF4F3081BF
:1001700020918401922F80E0AC01430F511D9A0120
:10018000C90108955D9BFECF8CB908955D9BFECF9C
:100190008CB90895FC0104C05D9BFECF31968CB9EB
:1001A00080818823C9F7089503C05D9BFECF2CB9D9
:1001B000FC01019624912223C1F70895949A959AFF
:1001C000929A9398979A96980895949A959A929855
:1001D000939A9798969A0895949A959A9298939A42
:1001E000979A96980895949A959A929A9398979830
:1001F000969A0895949A959A92989398979A969821
:100200000895949A959A929A9398979896980895A3
:1002100094989598929893989798969808958A9A12
:100220008B9A8C9A8D9A8E9A8F9A08951F93CF935A
:10023000DF9383E090E00E9491007894A09AA19AC5
:10024000A29AA39A0E940F0188E893E128EB30E07C
:10025000F9013197F1F70197D9F711E6C8EBD0E032
:100260000E94A6008823C9F0873721F40E94DE008F
:10027000A99A13C0833731F4A998AA98AB980E9421
:1002800008010BC0813621F4AA9A0E94EC0005C037
:10029000843619F40E94F300AB9AA89A5D9BFECFB6
:1002A0001CB988EB9BE0FE013197F1F70197D9F774
:1002B000A89888EB9BE0FE013197F1F70197D9F7F9
:0602C000CFCFF894FFCF40
:00000001FF
